:020000040000FA
:0400000027EF00F0F6
:100008002682FACF1EF0FBCF1FF0F2AC0EEF00F005
:1000180010EF00F021EF00F00E01BDA916EF00F07F
:1000280018EF00F021EF00F0C5A91DEF00F01FEF59
:1000380000F021EF00F048EC81F01FC0FBFF1EC06C
:0A004800FAFF26921100FDEF80F090
:10FBF80000000000000000000001000100010001F9
:10FC080000020002000200020003000300030003D8
:10FC180000040004000400040005000500050005B8
:10FC28000006000600060006000700070007000798
:10FC38000008000800080008000900090009000978
:10FC4800000A000A000A000A000B000B000B000B58
:10FC5800000C000C000C000C000D000D000D000D38
:10FC6800000E000E000E000E000F000F000F000F18
:10FC780000100010001000100011001100110011F8
:10FC880000120012001200120013001300130013D8
:10FC980000140014001400140015001500150015B8
:10FCA8000016001600160016001700170017001798
:10FCB8000018001800180018001900190019001978
:10FCC800001A001A001A001A001B001B001B001B58
:10FCD800001C001C001C001C001D001D001D001D38
:10FCE800001E001E001E001E001F001F001F001F18
:10FCF80000000001000100020002000300030004EC
:10FD080000040005000500060006000700070008BB
:10FD1800000800090009000A000A000B000B000C8B
:10FD2800000C000D000D000E000E000F000F00105B
:10FD3800001000100011001100120012001300132F
:10FD480000140014001500150016001600170017FF
:10FD58000018001800190019001A001A001B001BCF
:10FD6800001C001C001D001D001E001E001F001F9F
:10FD7800001F001E001E001D001D001C001C001B93
:10FD8800001B001A001A00190019001800180017A3
:10FD980000170016001600150015001400140013B3
:10FDA80000130012001200110011001000100010C2
:10FDB800000F000F000E000E000D000D000C000CCF
:10FDC800000B000B000A000A0009000900080008DF
:10FDD80000070007000600060005000500040004EF
:10FDE80000030003000200020001000100000000FF
:10FDF80000000000000000000000000000000000FB
:10FE080000000000000000000000000000000000EA
:10FE180000000000000000000000000000000000DA
:10FE280000000000000000000000000000000000CA
:10FE380000000000000000000000000000000000BA
:10FE480000000000000000000000000000000000AA
:10FE5800000000000000000000000000000000009A
:10FE6800000000000000000000000000000000008A
:10FE7800001F001F001F001F001F001F001F001F82
:10FE8800001F001F001F001F001F001F001F001F72
:10FE9800001F001F001F001F001F001F001F001F62
:10FEA800001F001F001F001F001F001F001F001F52
:10FEB800001F001F001F001F001F001F001F001F42
:10FEC800001F001F001F001F001F001F001F001F32
:10FED800001F001F001F001F001F001F001F001F22
:10FEE800001F001F001F001F001F001F001F001F12
:10FEF8000010001000110012001300130014001568
:10FF08000015001600170017001800190019001A2C
:10FF1800001A001B001B001C001C001D001D001EF9
:10FF2800001E001E001E001F001F001F001F001FD4
:10FF3800001F001F001F001F001F001F001E001EC3
:10FF4800001E001E001D001D001C001C001B001BC5
:10FF5800001A001A001900190018001700170016D7
:10FF680000150015001400130013001200110010F2
:10FF78000010000F000E000D000C000C000B000A12
:10FF8800000A00090008000800070006000600052E
:10FF98000005000400040003000300020002000141
:10FFA8000001000100010000000000000000000046
:10FFB8000000000000000000000000000001000137
:10FFC8000001000100020002000300030004000415
:10FFD80000050005000600060007000800080009E3
:10FFE800000A000A000B000C000C000D000E000FA8
:08FFF800001F001F00100000B3
:020000040001F9
:10000000000E826E000E836E000E846E000E856EF2
:10001000000E866EFB0E876E886889688A68060EF9
:100020008B6E040E0F010C6F000E146F000E1C6F10
:10003000000E216F000E296F000E0B6F000E136F64
:10004000040E1B6F000E206F040E286F000E0A6F47
:10005000000E126F000E1A6F000E1F6F000E276F3A
:100060000969116919691E69070E266F0869106907
:1000700018691D690F0E256F000E076F000E066FC1
:10008000000E056F000E0F6F000E0E6F000E0D6F4D
:10009000040E176F000E166F000E156F000E246F02
:1000A000000E236F000E226F120E206E030E216EC3
:1000B000010E226E63EC81F00E01BD89120024C096
:1000C00020F025C021F026EC81F0255009E1020E38
:1000D000245CD8A06EEF80F070EF80F091EF80F09C
:1000E000000E236E000E226E0DC0F6FF0EC0F7FF4D
:1000F000000EF86E0800F55085EC81F0020E0D261A
:10010000000E0E22224A232A235009E1800E225C8F
:10011000D8A08DEF80F08FEF80F074EF80F09BEF30
:1001200080F00DC0F6FF0EC0F7FF000EF86E08005D
:10013000F55085EC81F0120086B0A1EF80F0A4EFBD
:1001400080F0010EA5EF80F0000EFF0A1D6E8650B4
:100150001D18FE0B1D18866E255007E1050E245C48
:10016000D8B0B5EF80F0B7EF80F0BBEF80F0244A55
:10017000252ABFEF80F0000E256E000E246E1200BF
:10018000F29A0E01C591F280000E206E000E216ED3
:10019000000E226E78EC81F00E01C593F282000E03
:1001A000206E000E216E000E226E71EC81F00E01A9
:1001B000C595F284000E206E000E216E000E226E98
:1001C0006AEC81F012000A500B100C10D8B4EBEF5F
:1001D00080F0EDEF80F0FAEF80F002D8FAEF80F0D7
:1001E0000500FA6E0A50FD6E0B50FE6E0C50FF6E4D
:1001F000FA5012000F0115951200B80EF66E020E9D
:10020000F76E010EF86E00EE0FF010EE0EF0090022
:10021000F5CFEEFFE550E150FAE1256A246A269019
:100220002692000114EF81F053EC81F0F28EF28CF3
:10023000380E206E010E216E010E226E63EC81F0ED
:100240005FEC80F020EF81F027EF00F0D8902034B1
:10025000D96E2134DA6E0F0ED926000EDA22DECFE7
:100260000DF0DDCF0EF0060EE82EFED700D0120006
:10027000600E0E01D36F700ED46F000ED56F000E9E
:10028000D76F020ED96F000ED66F000ED86F120016
:100290000F0115A54EEF81F050EF81F052EF81F084
:1002A000E3EC80F01200C0EC80F038EC81F07FECE1
:1002B00081F000EC80F01200FDFFFBFFF9FEF9FC7D
:1002C000F9FDF9FBF9FF20C00AF021C00BF022C0B4
:1002D0000CF0120020C001F021C002F022C003F097
:1002E000120020C004F021C005F022C006F0120068
:1002F00020C007F021C008F022C009F01200A00EB3
:100300000F012E6F100E2F6F1200206E20C02FFFD6
:0403100012001200C5
:020000040020DA
:10000000FFFFFFFFFFFFFFFFFFFFFFFFFFFFFFFF00
:10001000FFFFFFFFFFFFFFFFFFFFFFFFFFFFFFFFF0
:10002000FFFFFFFFFFFFFFFFFFFFFFFFFFFFFFFFE0
:10003000FFFFFFFFFFFFFFFFFFFFFFFFFFFFFFFFD0
:10004000FFFFFFFFFFFFFFFFFFFFFFFFFFFFFFFFC0
:10005000FFFFFFFFFFFFFFFFFFFFFFFFFFFFFFFFB0
:10006000FFFFFFFFFFFFFFFFFFFFFFFFFFFFFFFFA0
:10007000FFFFFFFFFFFFFFFFFFFFFFFFFFFFFFFF90
:10008000FFFFFFFFFFFFFFFFFFFFFFFFFFFFFFFF80
:10009000FFFFFFFFFFFFFFFFFFFFFFFFFFFFFFFF70
:1000A000FFFFFFFFFFFFFFFFFFFFFFFFFFFFFFFF60
:1000B000FFFFFFFFFFFFFFFFFFFFFFFFFFFFFFFF50
:1000C000FFFFFFFFFFFFFFFFFFFFFFFFFFFFFFFF40
:1000D000FFFFFFFFFFFFFFFFFFFFFFFFFFFFFFFF30
:1000E000FFFFFFFFFFFFFFFFFFFFFFFFFFFFFFFF20
:1000F000FFFFFFFFFFFFFFFFFFFFFFFFFFFFFFFF10
:020000040030CA
:0C000000FFFFFFFF9FFFFFFFFFFFFFFF60
:00000001FF
